{
  "_format": "hh-sol-artifact-1",
  "contractName": "Create",
  "sourceName": "contracts/VotingContract.sol",
  "abi": [
    {
      "inputs": [],
      "stateMutability": "nonpayable",
      "type": "constructor"
    },
    {
      "anonymous": false,
      "inputs": [
        {
          "indexed": false,
          "internalType": "uint256",
          "name": "candidateId",
          "type": "uint256"
        },
        {
          "indexed": false,
          "internalType": "string",
          "name": "age",
          "type": "string"
        },
        {
          "indexed": false,
          "internalType": "string",
          "name": "name",
          "type": "string"
        },
        {
          "indexed": false,
          "internalType": "string",
          "name": "image",
          "type": "string"
        },
        {
          "indexed": false,
          "internalType": "uint256",
          "name": "voteCount",
          "type": "uint256"
        },
        {
          "indexed": false,
          "internalType": "address",
          "name": "_address",
          "type": "address"
        },
        {
          "indexed": false,
          "internalType": "string",
          "name": "ipfs",
          "type": "string"
        }
      ],
      "name": "CandidateCreate",
      "type": "event"
    },
    {
      "anonymous": false,
      "inputs": [
        {
          "indexed": false,
          "internalType": "uint256",
          "name": "voter_voterId",
          "type": "uint256"
        },
        {
          "indexed": false,
          "internalType": "string",
          "name": "voter_name",
          "type": "string"
        },
        {
          "indexed": false,
          "internalType": "string",
          "name": "voter_image",
          "type": "string"
        },
        {
          "indexed": false,
          "internalType": "address",
          "name": "voter_address",
          "type": "address"
        },
        {
          "indexed": false,
          "internalType": "uint256",
          "name": "voter_allowed",
          "type": "uint256"
        },
        {
          "indexed": false,
          "internalType": "bool",
          "name": "voter_voted",
          "type": "bool"
        },
        {
          "indexed": false,
          "internalType": "uint256",
          "name": "voter_vote",
          "type": "uint256"
        },
        {
          "indexed": false,
          "internalType": "string",
          "name": "voter_ipfs",
          "type": "string"
        }
      ],
      "name": "VoterCreated",
      "type": "event"
    },
    {
      "inputs": [
        {
          "internalType": "address",
          "name": "_address",
          "type": "address"
        },
        {
          "internalType": "string",
          "name": "_name",
          "type": "string"
        },
        {
          "internalType": "string",
          "name": "_image",
          "type": "string"
        },
        {
          "internalType": "string",
          "name": "_ipfs",
          "type": "string"
        }
      ],
      "name": "VoterRight",
      "outputs": [],
      "stateMutability": "nonpayable",
      "type": "function"
    },
    {
      "inputs": [],
      "name": "_candidateId",
      "outputs": [
        {
          "internalType": "uint256",
          "name": "",
          "type": "uint256"
        }
      ],
      "stateMutability": "view",
      "type": "function"
    },
    {
      "inputs": [],
      "name": "_voterId",
      "outputs": [
        {
          "internalType": "uint256",
          "name": "",
          "type": "uint256"
        }
      ],
      "stateMutability": "view",
      "type": "function"
    },
    {
      "inputs": [
        {
          "internalType": "uint256",
          "name": "",
          "type": "uint256"
        }
      ],
      "name": "candidateAddress",
      "outputs": [
        {
          "internalType": "address",
          "name": "",
          "type": "address"
        }
      ],
      "stateMutability": "view",
      "type": "function"
    },
    {
      "inputs": [
        {
          "internalType": "address",
          "name": "",
          "type": "address"
        }
      ],
      "name": "candidates",
      "outputs": [
        {
          "internalType": "uint256",
          "name": "candidateId",
          "type": "uint256"
        },
        {
          "internalType": "string",
          "name": "age",
          "type": "string"
        },
        {
          "internalType": "string",
          "name": "name",
          "type": "string"
        },
        {
          "internalType": "string",
          "name": "image",
          "type": "string"
        },
        {
          "internalType": "uint256",
          "name": "voteCount",
          "type": "uint256"
        },
        {
          "internalType": "address",
          "name": "_address",
          "type": "address"
        },
        {
          "internalType": "string",
          "name": "ipfs",
          "type": "string"
        }
      ],
      "stateMutability": "view",
      "type": "function"
    },
    {
      "inputs": [],
      "name": "getCandidate",
      "outputs": [
        {
          "internalType": "address[]",
          "name": "",
          "type": "address[]"
        }
      ],
      "stateMutability": "view",
      "type": "function"
    },
    {
      "inputs": [
        {
          "internalType": "address",
          "name": "_address",
          "type": "address"
        }
      ],
      "name": "getCandidateData",
      "outputs": [
        {
          "internalType": "string",
          "name": "",
          "type": "string"
        },
        {
          "internalType": "string",
          "name": "",
          "type": "string"
        },
        {
          "internalType": "uint256",
          "name": "",
          "type": "uint256"
        },
        {
          "internalType": "string",
          "name": "",
          "type": "string"
        },
        {
          "internalType": "uint256",
          "name": "",
          "type": "uint256"
        },
        {
          "internalType": "string",
          "name": "",
          "type": "string"
        },
        {
          "internalType": "address",
          "name": "",
          "type": "address"
        }
      ],
      "stateMutability": "view",
      "type": "function"
    },
    {
      "inputs": [],
      "name": "getCandidateLength",
      "outputs": [
        {
          "internalType": "uint256",
          "name": "",
          "type": "uint256"
        }
      ],
      "stateMutability": "view",
      "type": "function"
    },
    {
      "inputs": [],
      "name": "getVotedVoterList",
      "outputs": [
        {
          "internalType": "address[]",
          "name": "",
          "type": "address[]"
        }
      ],
      "stateMutability": "view",
      "type": "function"
    },
    {
      "inputs": [
        {
          "internalType": "address",
          "name": "_address",
          "type": "address"
        }
      ],
      "name": "getVoterData",
      "outputs": [
        {
          "internalType": "uint256",
          "name": "",
          "type": "uint256"
        },
        {
          "internalType": "string",
          "name": "",
          "type": "string"
        },
        {
          "internalType": "string",
          "name": "",
          "type": "string"
        },
        {
          "internalType": "address",
          "name": "",
          "type": "address"
        },
        {
          "internalType": "string",
          "name": "",
          "type": "string"
        },
        {
          "internalType": "uint256",
          "name": "",
          "type": "uint256"
        },
        {
          "internalType": "bool",
          "name": "",
          "type": "bool"
        }
      ],
      "stateMutability": "view",
      "type": "function"
    },
    {
      "inputs": [],
      "name": "getVoterLenght",
      "outputs": [
        {
          "internalType": "uint256",
          "name": "",
          "type": "uint256"
        }
      ],
      "stateMutability": "view",
      "type": "function"
    },
    {
      "inputs": [],
      "name": "getVoterList",
      "outputs": [
        {
          "internalType": "address[]",
          "name": "",
          "type": "address[]"
        }
      ],
      "stateMutability": "view",
      "type": "function"
    },
    {
      "inputs": [
        {
          "internalType": "address",
          "name": "_address",
          "type": "address"
        },
        {
          "internalType": "string",
          "name": "_age",
          "type": "string"
        },
        {
          "internalType": "string",
          "name": "_name",
          "type": "string"
        },
        {
          "internalType": "string",
          "name": "_image",
          "type": "string"
        },
        {
          "internalType": "string",
          "name": "_ipfs",
          "type": "string"
        }
      ],
      "name": "setCandidate",
      "outputs": [],
      "stateMutability": "nonpayable",
      "type": "function"
    },
    {
      "inputs": [
        {
          "internalType": "address",
          "name": "_candidateAddress",
          "type": "address"
        },
        {
          "internalType": "uint256",
          "name": "_candidateVoteId",
          "type": "uint256"
        }
      ],
      "name": "vote",
      "outputs": [],
      "stateMutability": "nonpayable",
      "type": "function"
    },
    {
      "inputs": [
        {
          "internalType": "uint256",
          "name": "",
          "type": "uint256"
        }
      ],
      "name": "votedVoters",
      "outputs": [
        {
          "internalType": "address",
          "name": "",
          "type": "address"
        }
      ],
      "stateMutability": "view",
      "type": "function"
    },
    {
      "inputs": [
        {
          "internalType": "address",
          "name": "",
          "type": "address"
        }
      ],
      "name": "voters",
      "outputs": [
        {
          "internalType": "uint256",
          "name": "voter_voterId",
          "type": "uint256"
        },
        {
          "internalType": "string",
          "name": "voter_name",
          "type": "string"
        },
        {
          "internalType": "string",
          "name": "voter_image",
          "type": "string"
        },
        {
          "internalType": "address",
          "name": "voter_address",
          "type": "address"
        },
        {
          "internalType": "uint256",
          "name": "voter_allowed",
          "type": "uint256"
        },
        {
          "internalType": "bool",
          "name": "voter_voted",
          "type": "bool"
        },
        {
          "internalType": "uint256",
          "name": "voter_vote",
          "type": "uint256"
        },
        {
          "internalType": "string",
          "name": "voter_ipfs",
          "type": "string"
        }
      ],
      "stateMutability": "view",
      "type": "function"
    },
    {
      "inputs": [
        {
          "internalType": "uint256",
          "name": "",
          "type": "uint256"
        }
      ],
      "name": "votersAddress",
      "outputs": [
        {
          "internalType": "address",
          "name": "",
          "type": "address"
        }
      ],
      "stateMutability": "view",
      "type": "function"
    },
    {
      "inputs": [],
      "name": "votingOrganizer",
      "outputs": [
        {
          "internalType": "address",
          "name": "",
          "type": "address"
        }
      ],
      "stateMutability": "view",
      "type": "function"
    }
  ],
  "bytecode": "0x608060405234801561001057600080fd5b5033600260006101000a81548173ffffffffffffffffffffffffffffffffffffffff021916908373ffffffffffffffffffffffffffffffffffffffff160217905550612739806100616000396000f3fe608060405234801561001057600080fd5b50600436106101165760003560e01c80638ab66a90116100a2578063a738896711610071578063a738896714610334578063b28d92ae14610352578063b9be315214610370578063c91ec7121461038e578063f7522a83146103aa57610116565b80638ab66a90146102735780638e945685146102a95780638fb4cd80146102c7578063a3ec138d146102fd57610116565b806343242daa116100e957806343242daa146101bb5780635cc48aa7146101eb5780635f74bbde1461020957806370218b85146102255780637831ffb31461024357610116565b80631de5516b1461011b5780632055270f146101395780632a466ac7146101555780633a88251a1461018b575b600080fd5b6101236103c8565b60405161013091906119ba565b60405180910390f35b610153600480360381019061014e9190611b8d565b6103d5565b005b61016f600480360381019061016a9190611c48565b610653565b6040516101829796959493929190611d03565b60405180910390f35b6101a560048036038101906101a09190611dba565b610a9a565b6040516101b29190611de7565b60405180910390f35b6101d560048036038101906101d09190611dba565b610ad9565b6040516101e29190611de7565b60405180910390f35b6101f3610b18565b6040516102009190611de7565b60405180910390f35b610223600480360381019061021e9190611e02565b610b3e565b005b61022d610d05565b60405161023a9190611f00565b60405180910390f35b61025d60048036038101906102589190611dba565b610d93565b60405161026a9190611de7565b60405180910390f35b61028d60048036038101906102889190611c48565b610dd2565b6040516102a09796959493929190611f22565b60405180910390f35b6102b1611054565b6040516102be9190611f00565b60405180910390f35b6102e160048036038101906102dc9190611c48565b6110e2565b6040516102f49796959493929190611fc8565b60405180910390f35b61031760048036038101906103129190611c48565b6114aa565b60405161032b98979695949392919061204c565b60405180910390f35b61033c6116b7565b60405161034991906119ba565b60405180910390f35b61035a6116bd565b6040516103679190611f00565b60405180910390f35b61037861174b565b60405161038591906119ba565b60405180910390f35b6103a860048036038101906103a391906120df565b611751565b005b6103b2611994565b6040516103bf91906119ba565b60405180910390f35b6000600680549050905090565b3373ffffffffffffffffffffffffffffffffffffffff16600260009054906101000a900473ffffffffffffffffffffffffffffffffffffffff1673ffffffffffffffffffffffffffffffffffffffff1614610465576040517f08c379a000000000000000000000000000000000000000000000000000000000815260040161045c90612216565b60405180910390fd5b60008081548092919061047790612265565b91905055506000805490506000600760008773ffffffffffffffffffffffffffffffffffffffff1673ffffffffffffffffffffffffffffffffffffffff168152602001908152602001600020905060008160040154146104d657600080fd5b60018160040181905550848160010190816104f191906124b9565b508381600201908161050391906124b9565b50858160030160006101000a81548173ffffffffffffffffffffffffffffffffffffffff021916908373ffffffffffffffffffffffffffffffffffffffff1602179055508181600001819055506103e8816006018190555060008160050160006101000a81548160ff0219169083151502179055508281600701908161058991906124b9565b506006869080600181540180825580915050600190039060005260206000200160009091909190916101000a81548173ffffffffffffffffffffffffffffffffffffffff021916908373ffffffffffffffffffffffffffffffffffffffff1602179055507ff5f39971dd62d9929e3a9feaa6bb77fe7c7da0001babff8a65a7e51ad0201c198286868985600401548660050160009054906101000a900460ff1687600601548a60405161064398979695949392919061204c565b60405180910390a1505050505050565b60608060006060600060606000600460008973ffffffffffffffffffffffffffffffffffffffff1673ffffffffffffffffffffffffffffffffffffffff168152602001908152602001600020600101600460008a73ffffffffffffffffffffffffffffffffffffffff1673ffffffffffffffffffffffffffffffffffffffff168152602001908152602001600020600201600460008b73ffffffffffffffffffffffffffffffffffffffff1673ffffffffffffffffffffffffffffffffffffffff16815260200190815260200160002060000154600460008c73ffffffffffffffffffffffffffffffffffffffff1673ffffffffffffffffffffffffffffffffffffffff168152602001908152602001600020600301600460008d73ffffffffffffffffffffffffffffffffffffffff1673ffffffffffffffffffffffffffffffffffffffff16815260200190815260200160002060040154600460008e73ffffffffffffffffffffffffffffffffffffffff1673ffffffffffffffffffffffffffffffffffffffff168152602001908152602001600020600601600460008f73ffffffffffffffffffffffffffffffffffffffff1673ffffffffffffffffffffffffffffffffffffffff16815260200190815260200160002060050160009054906101000a900473ffffffffffffffffffffffffffffffffffffffff1686805461085d906122dc565b80601f0160208091040260200160405190810160405280929190818152602001828054610889906122dc565b80156108d65780601f106108ab576101008083540402835291602001916108d6565b820191906000526020600020905b8154815290600101906020018083116108b957829003601f168201915b505050505096508580546108e9906122dc565b80601f0160208091040260200160405190810160405280929190818152602001828054610915906122dc565b80156109625780601f1061093757610100808354040283529160200191610962565b820191906000526020600020905b81548152906001019060200180831161094557829003601f168201915b50505050509550838054610975906122dc565b80601f01602080910402602001604051908101604052809291908181526020018280546109a1906122dc565b80156109ee5780601f106109c3576101008083540402835291602001916109ee565b820191906000526020600020905b8154815290600101906020018083116109d157829003601f168201915b50505050509350818054610a01906122dc565b80601f0160208091040260200160405190810160405280929190818152602001828054610a2d906122dc565b8015610a7a5780601f10610a4f57610100808354040283529160200191610a7a565b820191906000526020600020905b815481529060010190602001808311610a5d57829003601f168201915b505050505091509650965096509650965096509650919395979092949650565b60038181548110610aaa57600080fd5b906000526020600020016000915054906101000a900473ffffffffffffffffffffffffffffffffffffffff1681565b60068181548110610ae957600080fd5b906000526020600020016000915054906101000a900473ffffffffffffffffffffffffffffffffffffffff1681565b600260009054906101000a900473ffffffffffffffffffffffffffffffffffffffff1681565b6000600760003373ffffffffffffffffffffffffffffffffffffffff1673ffffffffffffffffffffffffffffffffffffffff16815260200190815260200160002090508060050160009054906101000a900460ff1615610bd3576040517f08c379a0000000000000000000000000000000000000000000000000000000008152600401610bca906125d7565b60405180910390fd5b6000816004015403610c1a576040517f08c379a0000000000000000000000000000000000000000000000000000000008152600401610c1190612643565b60405180910390fd5b60018160050160006101000a81548160ff0219169083151502179055508181600601819055506005339080600181540180825580915050600190039060005260206000200160009091909190916101000a81548173ffffffffffffffffffffffffffffffffffffffff021916908373ffffffffffffffffffffffffffffffffffffffff1602179055508060040154600460008573ffffffffffffffffffffffffffffffffffffffff1673ffffffffffffffffffffffffffffffffffffffff1681526020019081526020016000206004016000828254610cf99190612663565b92505081905550505050565b60606003805480602002602001604051908101604052809291908181526020018280548015610d8957602002820191906000526020600020905b8160009054906101000a900473ffffffffffffffffffffffffffffffffffffffff1673ffffffffffffffffffffffffffffffffffffffff1681526020019060010190808311610d3f575b5050505050905090565b60058181548110610da357600080fd5b906000526020600020016000915054906101000a900473ffffffffffffffffffffffffffffffffffffffff1681565b6004602052806000526040600020600091509050806000015490806001018054610dfb906122dc565b80601f0160208091040260200160405190810160405280929190818152602001828054610e27906122dc565b8015610e745780601f10610e4957610100808354040283529160200191610e74565b820191906000526020600020905b815481529060010190602001808311610e5757829003601f168201915b505050505090806002018054610e89906122dc565b80601f0160208091040260200160405190810160405280929190818152602001828054610eb5906122dc565b8015610f025780601f10610ed757610100808354040283529160200191610f02565b820191906000526020600020905b815481529060010190602001808311610ee557829003601f168201915b505050505090806003018054610f17906122dc565b80601f0160208091040260200160405190810160405280929190818152602001828054610f43906122dc565b8015610f905780601f10610f6557610100808354040283529160200191610f90565b820191906000526020600020905b815481529060010190602001808311610f7357829003601f168201915b5050505050908060040154908060050160009054906101000a900473ffffffffffffffffffffffffffffffffffffffff1690806006018054610fd1906122dc565b80601f0160208091040260200160405190810160405280929190818152602001828054610ffd906122dc565b801561104a5780601f1061101f5761010080835404028352916020019161104a565b820191906000526020600020905b81548152906001019060200180831161102d57829003601f168201915b5050505050905087565b606060058054806020026020016040519081016040528092919081815260200182805480156110d857602002820191906000526020600020905b8160009054906101000a900473ffffffffffffffffffffffffffffffffffffffff1673ffffffffffffffffffffffffffffffffffffffff168152602001906001019080831161108e575b5050505050905090565b600060608060006060600080600760008973ffffffffffffffffffffffffffffffffffffffff1673ffffffffffffffffffffffffffffffffffffffff16815260200190815260200160002060000154600760008a73ffffffffffffffffffffffffffffffffffffffff1673ffffffffffffffffffffffffffffffffffffffff168152602001908152602001600020600101600760008b73ffffffffffffffffffffffffffffffffffffffff1673ffffffffffffffffffffffffffffffffffffffff168152602001908152602001600020600201600760008c73ffffffffffffffffffffffffffffffffffffffff1673ffffffffffffffffffffffffffffffffffffffff16815260200190815260200160002060030160009054906101000a900473ffffffffffffffffffffffffffffffffffffffff16600760008d73ffffffffffffffffffffffffffffffffffffffff1673ffffffffffffffffffffffffffffffffffffffff168152602001908152602001600020600701600760008e73ffffffffffffffffffffffffffffffffffffffff1673ffffffffffffffffffffffffffffffffffffffff16815260200190815260200160002060040154600760008f73ffffffffffffffffffffffffffffffffffffffff1673ffffffffffffffffffffffffffffffffffffffff16815260200190815260200160002060050160009054906101000a900460ff168580546112f9906122dc565b80601f0160208091040260200160405190810160405280929190818152602001828054611325906122dc565b80156113725780601f1061134757610100808354040283529160200191611372565b820191906000526020600020905b81548152906001019060200180831161135557829003601f168201915b50505050509550848054611385906122dc565b80601f01602080910402602001604051908101604052809291908181526020018280546113b1906122dc565b80156113fe5780601f106113d3576101008083540402835291602001916113fe565b820191906000526020600020905b8154815290600101906020018083116113e157829003601f168201915b50505050509450828054611411906122dc565b80601f016020809104026020016040519081016040528092919081815260200182805461143d906122dc565b801561148a5780601f1061145f5761010080835404028352916020019161148a565b820191906000526020600020905b81548152906001019060200180831161146d57829003601f168201915b505050505092509650965096509650965096509650919395979092949650565b60076020528060005260406000206000915090508060000154908060010180546114d3906122dc565b80601f01602080910402602001604051908101604052809291908181526020018280546114ff906122dc565b801561154c5780601f106115215761010080835404028352916020019161154c565b820191906000526020600020905b81548152906001019060200180831161152f57829003601f168201915b505050505090806002018054611561906122dc565b80601f016020809104026020016040519081016040528092919081815260200182805461158d906122dc565b80156115da5780601f106115af576101008083540402835291602001916115da565b820191906000526020600020905b8154815290600101906020018083116115bd57829003601f168201915b5050505050908060030160009054906101000a900473ffffffffffffffffffffffffffffffffffffffff16908060040154908060050160009054906101000a900460ff1690806006015490806007018054611634906122dc565b80601f0160208091040260200160405190810160405280929190818152602001828054611660906122dc565b80156116ad5780601f10611682576101008083540402835291602001916116ad565b820191906000526020600020905b81548152906001019060200180831161169057829003601f168201915b5050505050905088565b60015481565b6060600680548060200260200160405190810160405280929190818152602001828054801561174157602002820191906000526020600020905b8160009054906101000a900473ffffffffffffffffffffffffffffffffffffffff1673ffffffffffffffffffffffffffffffffffffffff16815260200190600101908083116116f7575b5050505050905090565b60005481565b3373ffffffffffffffffffffffffffffffffffffffff16600260009054906101000a900473ffffffffffffffffffffffffffffffffffffffff1673ffffffffffffffffffffffffffffffffffffffff16146117e1576040517f08c379a00000000000000000000000000000000000000000000000000000000081526004016117d8906126e3565b60405180910390fd5b600160008154809291906117f490612265565b9190505550600060015490506000600460008873ffffffffffffffffffffffffffffffffffffffff1673ffffffffffffffffffffffffffffffffffffffff16815260200190815260200160002090508581600101908161185491906124b9565b508481600201908161186691906124b9565b508181600001819055508381600301908161188191906124b9565b5060008160040181905550868160050160006101000a81548173ffffffffffffffffffffffffffffffffffffffff021916908373ffffffffffffffffffffffffffffffffffffffff160217905550828160060190816118e091906124b9565b506003879080600181540180825580915050600190039060005260206000200160009091909190916101000a81548173ffffffffffffffffffffffffffffffffffffffff021916908373ffffffffffffffffffffffffffffffffffffffff1602179055507fd297f12b256bb8485a6013fb5e302017018123e99a0ebb20756c09e1707b4b908287878785600401548c896040516119839796959493929190611f22565b60405180910390a150505050505050565b6000600380549050905090565b6000819050919050565b6119b4816119a1565b82525050565b60006020820190506119cf60008301846119ab565b92915050565b6000604051905090565b600080fd5b600080fd5b600073ffffffffffffffffffffffffffffffffffffffff82169050919050565b6000611a14826119e9565b9050919050565b611a2481611a09565b8114611a2f57600080fd5b50565b600081359050611a4181611a1b565b92915050565b600080fd5b600080fd5b6000601f19601f8301169050919050565b7f4e487b7100000000000000000000000000000000000000000000000000000000600052604160045260246000fd5b611a9a82611a51565b810181811067ffffffffffffffff82111715611ab957611ab8611a62565b5b80604052505050565b6000611acc6119d5565b9050611ad88282611a91565b919050565b600067ffffffffffffffff821115611af857611af7611a62565b5b611b0182611a51565b9050602081019050919050565b82818337600083830152505050565b6000611b30611b2b84611add565b611ac2565b905082815260208101848484011115611b4c57611b4b611a4c565b5b611b57848285611b0e565b509392505050565b600082601f830112611b7457611b73611a47565b5b8135611b84848260208601611b1d565b91505092915050565b60008060008060808587031215611ba757611ba66119df565b5b6000611bb587828801611a32565b945050602085013567ffffffffffffffff811115611bd657611bd56119e4565b5b611be287828801611b5f565b935050604085013567ffffffffffffffff811115611c0357611c026119e4565b5b611c0f87828801611b5f565b925050606085013567ffffffffffffffff811115611c3057611c2f6119e4565b5b611c3c87828801611b5f565b91505092959194509250565b600060208284031215611c5e57611c5d6119df565b5b6000611c6c84828501611a32565b91505092915050565b600081519050919050565b600082825260208201905092915050565b60005b83811015611caf578082015181840152602081019050611c94565b60008484015250505050565b6000611cc682611c75565b611cd08185611c80565b9350611ce0818560208601611c91565b611ce981611a51565b840191505092915050565b611cfd81611a09565b82525050565b600060e0820190508181036000830152611d1d818a611cbb565b90508181036020830152611d318189611cbb565b9050611d4060408301886119ab565b8181036060830152611d528187611cbb565b9050611d6160808301866119ab565b81810360a0830152611d738185611cbb565b9050611d8260c0830184611cf4565b98975050505050505050565b611d97816119a1565b8114611da257600080fd5b50565b600081359050611db481611d8e565b92915050565b600060208284031215611dd057611dcf6119df565b5b6000611dde84828501611da5565b91505092915050565b6000602082019050611dfc6000830184611cf4565b92915050565b60008060408385031215611e1957611e186119df565b5b6000611e2785828601611a32565b9250506020611e3885828601611da5565b9150509250929050565b600081519050919050565b600082825260208201905092915050565b6000819050602082019050919050565b611e7781611a09565b82525050565b6000611e898383611e6e565b60208301905092915050565b6000602082019050919050565b6000611ead82611e42565b611eb78185611e4d565b9350611ec283611e5e565b8060005b83811015611ef3578151611eda8882611e7d565b9750611ee583611e95565b925050600181019050611ec6565b5085935050505092915050565b60006020820190508181036000830152611f1a8184611ea2565b905092915050565b600060e082019050611f37600083018a6119ab565b8181036020830152611f498189611cbb565b90508181036040830152611f5d8188611cbb565b90508181036060830152611f718187611cbb565b9050611f8060808301866119ab565b611f8d60a0830185611cf4565b81810360c0830152611f9f8184611cbb565b905098975050505050505050565b60008115159050919050565b611fc281611fad565b82525050565b600060e082019050611fdd600083018a6119ab565b8181036020830152611fef8189611cbb565b905081810360408301526120038188611cbb565b90506120126060830187611cf4565b81810360808301526120248186611cbb565b905061203360a08301856119ab565b61204060c0830184611fb9565b98975050505050505050565b600061010082019050612062600083018b6119ab565b8181036020830152612074818a611cbb565b905081810360408301526120888189611cbb565b90506120976060830188611cf4565b6120a460808301876119ab565b6120b160a0830186611fb9565b6120be60c08301856119ab565b81810360e08301526120d08184611cbb565b90509998505050505050505050565b600080600080600060a086880312156120fb576120fa6119df565b5b600061210988828901611a32565b955050602086013567ffffffffffffffff81111561212a576121296119e4565b5b61213688828901611b5f565b945050604086013567ffffffffffffffff811115612157576121566119e4565b5b61216388828901611b5f565b935050606086013567ffffffffffffffff811115612184576121836119e4565b5b61219088828901611b5f565b925050608086013567ffffffffffffffff8111156121b1576121b06119e4565b5b6121bd88828901611b5f565b9150509295509295909350565b7f4f6e6c79206f7267616e697a65722063616e2063726561746520766f74657200600082015250565b6000612200601f83611c80565b915061220b826121ca565b602082019050919050565b6000602082019050818103600083015261222f816121f3565b9050919050565b7f4e487b7100000000000000000000000000000000000000000000000000000000600052601160045260246000fd5b6000612270826119a1565b91507fffffffffffffffffffffffffffffffffffffffffffffffffffffffffffffffff82036122a2576122a1612236565b5b600182019050919050565b7f4e487b7100000000000000000000000000000000000000000000000000000000600052602260045260246000fd5b600060028204905060018216806122f457607f821691505b602082108103612307576123066122ad565b5b50919050565b60008190508160005260206000209050919050565b60006020601f8301049050919050565b600082821b905092915050565b60006008830261236f7fffffffffffffffffffffffffffffffffffffffffffffffffffffffffffffffff82612332565b6123798683612332565b95508019841693508086168417925050509392505050565b6000819050919050565b60006123b66123b16123ac846119a1565b612391565b6119a1565b9050919050565b6000819050919050565b6123d08361239b565b6123e46123dc826123bd565b84845461233f565b825550505050565b600090565b6123f96123ec565b6124048184846123c7565b505050565b5b818110156124285761241d6000826123f1565b60018101905061240a565b5050565b601f82111561246d5761243e8161230d565b61244784612322565b81016020851015612456578190505b61246a61246285612322565b830182612409565b50505b505050565b600082821c905092915050565b600061249060001984600802612472565b1980831691505092915050565b60006124a9838361247f565b9150826002028217905092915050565b6124c282611c75565b67ffffffffffffffff8111156124db576124da611a62565b5b6124e582546122dc565b6124f082828561242c565b600060209050601f8311600181146125235760008415612511578287015190505b61251b858261249d565b865550612583565b601f1984166125318661230d565b60005b8281101561255957848901518255600182019150602085019450602081019050612534565b868310156125765784890151612572601f89168261247f565b8355505b6001600288020188555050505b505050505050565b7f596f75206861766520616c726561647920766f74656400000000000000000000600082015250565b60006125c1601683611c80565b91506125cc8261258b565b602082019050919050565b600060208201905081810360008301526125f0816125b4565b9050919050565b7f596f752068617665206e6f20726967687420746f20766f746500000000000000600082015250565b600061262d601983611c80565b9150612638826125f7565b602082019050919050565b6000602082019050818103600083015261265c81612620565b9050919050565b600061266e826119a1565b9150612679836119a1565b925082820190508082111561269157612690612236565b5b92915050565b7f4f6e6c79206f7267616e697a65722063616e2063726561746520766f74657273600082015250565b60006126cd602083611c80565b91506126d882612697565b602082019050919050565b600060208201905081810360008301526126fc816126c0565b905091905056fea2646970667358221220f1f1221cb998ae1ac5512b2bdee3d40f5d10ef7f6706e57629549df2a00c9b3364736f6c63430008180033",
  "linkReferences": {},
  "deployedLinkReferences": {}
}